{
  "contractName": "MyToken",
  "abi": [
    {
      "inputs": [],
      "stateMutability": "nonpayable",
      "type": "constructor"
    },
    {
      "anonymous": false,
      "inputs": [
        {
          "indexed": true,
          "internalType": "address",
          "name": "owner",
          "type": "address"
        },
        {
          "indexed": true,
          "internalType": "address",
          "name": "approved",
          "type": "address"
        },
        {
          "indexed": true,
          "internalType": "uint256",
          "name": "tokenId",
          "type": "uint256"
        }
      ],
      "name": "Approval",
      "type": "event"
    },
    {
      "anonymous": false,
      "inputs": [
        {
          "indexed": true,
          "internalType": "address",
          "name": "owner",
          "type": "address"
        },
        {
          "indexed": true,
          "internalType": "address",
          "name": "operator",
          "type": "address"
        },
        {
          "indexed": false,
          "internalType": "bool",
          "name": "approved",
          "type": "bool"
        }
      ],
      "name": "ApprovalForAll",
      "type": "event"
    },
    {
      "anonymous": false,
      "inputs": [
        {
          "indexed": true,
          "internalType": "address",
          "name": "previousOwner",
          "type": "address"
        },
        {
          "indexed": true,
          "internalType": "address",
          "name": "newOwner",
          "type": "address"
        }
      ],
      "name": "OwnershipTransferred",
      "type": "event"
    },
    {
      "anonymous": false,
      "inputs": [
        {
          "indexed": false,
          "internalType": "address",
          "name": "account",
          "type": "address"
        }
      ],
      "name": "Paused",
      "type": "event"
    },
    {
      "anonymous": false,
      "inputs": [
        {
          "indexed": true,
          "internalType": "uint256",
          "name": "tokenId",
          "type": "uint256"
        },
        {
          "indexed": true,
          "internalType": "address",
          "name": "account",
          "type": "address"
        },
        {
          "indexed": false,
          "internalType": "uint256",
          "name": "percentage",
          "type": "uint256"
        }
      ],
      "name": "RoyaltyAdded",
      "type": "event"
    },
    {
      "anonymous": false,
      "inputs": [
        {
          "indexed": true,
          "internalType": "address",
          "name": "from",
          "type": "address"
        },
        {
          "indexed": true,
          "internalType": "address",
          "name": "to",
          "type": "address"
        },
        {
          "indexed": true,
          "internalType": "uint256",
          "name": "tokenId",
          "type": "uint256"
        }
      ],
      "name": "Transfer",
      "type": "event"
    },
    {
      "anonymous": false,
      "inputs": [
        {
          "indexed": false,
          "internalType": "address",
          "name": "account",
          "type": "address"
        }
      ],
      "name": "Unpaused",
      "type": "event"
    },
    {
      "inputs": [
        {
          "internalType": "address",
          "name": "to",
          "type": "address"
        },
        {
          "internalType": "uint256",
          "name": "tokenId",
          "type": "uint256"
        }
      ],
      "name": "approve",
      "outputs": [],
      "stateMutability": "nonpayable",
      "type": "function"
    },
    {
      "inputs": [
        {
          "internalType": "address",
          "name": "owner",
          "type": "address"
        }
      ],
      "name": "balanceOf",
      "outputs": [
        {
          "internalType": "uint256",
          "name": "",
          "type": "uint256"
        }
      ],
      "stateMutability": "view",
      "type": "function",
      "constant": true
    },
    {
      "inputs": [
        {
          "internalType": "uint256",
          "name": "tokenId",
          "type": "uint256"
        }
      ],
      "name": "burn",
      "outputs": [],
      "stateMutability": "nonpayable",
      "type": "function"
    },
    {
      "inputs": [
        {
          "internalType": "uint256",
          "name": "tokenId",
          "type": "uint256"
        }
      ],
      "name": "getApproved",
      "outputs": [
        {
          "internalType": "address",
          "name": "",
          "type": "address"
        }
      ],
      "stateMutability": "view",
      "type": "function",
      "constant": true
    },
    {
      "inputs": [
        {
          "internalType": "address",
          "name": "owner",
          "type": "address"
        },
        {
          "internalType": "address",
          "name": "operator",
          "type": "address"
        }
      ],
      "name": "isApprovedForAll",
      "outputs": [
        {
          "internalType": "bool",
          "name": "",
          "type": "bool"
        }
      ],
      "stateMutability": "view",
      "type": "function",
      "constant": true
    },
    {
      "inputs": [],
      "name": "name",
      "outputs": [
        {
          "internalType": "string",
          "name": "",
          "type": "string"
        }
      ],
      "stateMutability": "view",
      "type": "function",
      "constant": true
    },
    {
      "inputs": [],
      "name": "owner",
      "outputs": [
        {
          "internalType": "address",
          "name": "",
          "type": "address"
        }
      ],
      "stateMutability": "view",
      "type": "function",
      "constant": true
    },
    {
      "inputs": [
        {
          "internalType": "uint256",
          "name": "tokenId",
          "type": "uint256"
        }
      ],
      "name": "ownerOf",
      "outputs": [
        {
          "internalType": "address",
          "name": "",
          "type": "address"
        }
      ],
      "stateMutability": "view",
      "type": "function",
      "constant": true
    },
    {
      "inputs": [],
      "name": "paused",
      "outputs": [
        {
          "internalType": "bool",
          "name": "",
          "type": "bool"
        }
      ],
      "stateMutability": "view",
      "type": "function",
      "constant": true
    },
    {
      "inputs": [],
      "name": "renounceOwnership",
      "outputs": [],
      "stateMutability": "nonpayable",
      "type": "function"
    },
    {
      "inputs": [
        {
          "internalType": "address",
          "name": "from",
          "type": "address"
        },
        {
          "internalType": "address",
          "name": "to",
          "type": "address"
        },
        {
          "internalType": "uint256",
          "name": "tokenId",
          "type": "uint256"
        }
      ],
      "name": "safeTransferFrom",
      "outputs": [],
      "stateMutability": "nonpayable",
      "type": "function"
    },
    {
      "inputs": [
        {
          "internalType": "address",
          "name": "from",
          "type": "address"
        },
        {
          "internalType": "address",
          "name": "to",
          "type": "address"
        },
        {
          "internalType": "uint256",
          "name": "tokenId",
          "type": "uint256"
        },
        {
          "internalType": "bytes",
          "name": "_data",
          "type": "bytes"
        }
      ],
      "name": "safeTransferFrom",
      "outputs": [],
      "stateMutability": "nonpayable",
      "type": "function"
    },
    {
      "inputs": [
        {
          "internalType": "address",
          "name": "operator",
          "type": "address"
        },
        {
          "internalType": "bool",
          "name": "approved",
          "type": "bool"
        }
      ],
      "name": "setApprovalForAll",
      "outputs": [],
      "stateMutability": "nonpayable",
      "type": "function"
    },
    {
      "inputs": [],
      "name": "symbol",
      "outputs": [
        {
          "internalType": "string",
          "name": "",
          "type": "string"
        }
      ],
      "stateMutability": "view",
      "type": "function",
      "constant": true
    },
    {
      "inputs": [
        {
          "internalType": "uint256",
          "name": "tokenId",
          "type": "uint256"
        }
      ],
      "name": "tokenURI",
      "outputs": [
        {
          "internalType": "string",
          "name": "",
          "type": "string"
        }
      ],
      "stateMutability": "view",
      "type": "function",
      "constant": true
    },
    {
      "inputs": [
        {
          "internalType": "address",
          "name": "from",
          "type": "address"
        },
        {
          "internalType": "address",
          "name": "to",
          "type": "address"
        },
        {
          "internalType": "uint256",
          "name": "tokenId",
          "type": "uint256"
        }
      ],
      "name": "transferFrom",
      "outputs": [],
      "stateMutability": "nonpayable",
      "type": "function"
    },
    {
      "inputs": [
        {
          "internalType": "address",
          "name": "newOwner",
          "type": "address"
        }
      ],
      "name": "transferOwnership",
      "outputs": [],
      "stateMutability": "nonpayable",
      "type": "function"
    },
    {
      "inputs": [],
      "name": "pause",
      "outputs": [],
      "stateMutability": "nonpayable",
      "type": "function"
    },
    {
      "inputs": [],
      "name": "unpause",
      "outputs": [],
      "stateMutability": "nonpayable",
      "type": "function"
    },
    {
      "inputs": [
        {
          "internalType": "address",
          "name": "to",
          "type": "address"
        },
        {
          "internalType": "uint256",
          "name": "tokenId",
          "type": "uint256"
        }
      ],
      "name": "safeMint",
      "outputs": [],
      "stateMutability": "nonpayable",
      "type": "function"
    },
    {
      "inputs": [
        {
          "internalType": "address",
          "name": "_to",
          "type": "address"
        },
        {
          "internalType": "uint256[]",
          "name": "_tokenId",
          "type": "uint256[]"
        },
        {
          "internalType": "string[]",
          "name": "IPFSHash",
          "type": "string[]"
        },
        {
          "components": [
            {
              "internalType": "address",
              "name": "account",
              "type": "address"
            },
            {
              "internalType": "uint256",
              "name": "percentage",
              "type": "uint256"
            }
          ],
          "internalType": "struct MyToken.Royalties",
          "name": "_royalties",
          "type": "tuple"
        }
      ],
      "name": "batchMint",
      "outputs": [],
      "stateMutability": "nonpayable",
      "type": "function"
    },
    {
      "inputs": [
        {
          "internalType": "uint256",
          "name": "_tokenId",
          "type": "uint256"
        },
        {
          "components": [
            {
              "internalType": "address",
              "name": "account",
              "type": "address"
            },
            {
              "internalType": "uint256",
              "name": "percentage",
              "type": "uint256"
            }
          ],
          "internalType": "struct MyToken.Royalties",
          "name": "_royalties",
          "type": "tuple"
        }
      ],
      "name": "updateRoylaites",
      "outputs": [],
      "stateMutability": "nonpayable",
      "type": "function"
    },
    {
      "inputs": [
        {
          "internalType": "uint256",
          "name": "_tokenId",
          "type": "uint256"
        },
        {
          "internalType": "uint256",
          "name": "_salePrice",
          "type": "uint256"
        }
      ],
      "name": "royaltyInfo",
      "outputs": [
        {
          "internalType": "address",
          "name": "receiver",
          "type": "address"
        },
        {
          "internalType": "uint256",
          "name": "royaltyAmount",
          "type": "uint256"
        }
      ],
      "stateMutability": "view",
      "type": "function",
      "constant": true
    },
    {
      "inputs": [
        {
          "internalType": "bytes4",
          "name": "interfaceId",
          "type": "bytes4"
        }
      ],
      "name": "supportsInterface",
      "outputs": [
        {
          "internalType": "bool",
          "name": "",
          "type": "bool"
        }
      ],
      "stateMutability": "view",
      "type": "function",
      "constant": true
    }
  ],
  "bytecode": "0x60806040523480156200001157600080fd5b506040518060400160405280600781526020017f4d79546f6b656e000000000000000000000000000000000000000000000000008152506040518060400160405280600381526020017f4d544b0000000000000000000000000000000000000000000000000000000000815250816000908051906020019062000096929190620001c1565b508060019080519060200190620000af929190620001c1565b5050506000600660006101000a81548160ff021916908315150217905550620000ed620000e1620000f360201b60201c565b620000fb60201b60201c565b620002d6565b600033905090565b6000600660019054906101000a900473ffffffffffffffffffffffffffffffffffffffff16905081600660016101000a81548173ffffffffffffffffffffffffffffffffffffffff021916908373ffffffffffffffffffffffffffffffffffffffff1602179055508173ffffffffffffffffffffffffffffffffffffffff168173ffffffffffffffffffffffffffffffffffffffff167f8be0079c531659141344cd1fd0a4f28419497f9722a3daafe3b4186f6b6457e060405160405180910390a35050565b828054620001cf90620002a0565b90600052602060002090601f016020900481019282620001f357600085556200023f565b82601f106200020e57805160ff19168380011785556200023f565b828001600101855582156200023f579182015b828111156200023e57825182559160200191906001019062000221565b5b5090506200024e919062000252565b5090565b5b808211156200026d57600081600090555060010162000253565b5090565b7f4e487b7100000000000000000000000000000000000000000000000000000000600052602260045260246000fd5b60006002820490506001821680620002b957607f821691505b60208210811415620002d057620002cf62000271565b5b50919050565b613f9780620002e66000396000f3fe608060405234801561001057600080fd5b50600436106101585760003560e01c80636352211e116100c3578063a14481941161007c578063a14481941461038c578063a22cb465146103a8578063b88d4fde146103c4578063c87b56dd146103e0578063e985e9c514610410578063f2fde38b1461044057610158565b80636352211e146102dc57806370a082311461030c578063715018a61461033c5780638456cb59146103465780638da5cb5b1461035057806395d89b411461036e57610158565b80633f4ba83a116101155780633f4ba83a1461024457806342842e0e1461024e57806342966c681461026a5780634bf16a571461028657806350c0b6c6146102a25780635c975abb146102be57610158565b806301ffc9a71461015d57806306fdde031461018d578063081812fc146101ab578063095ea7b3146101db57806323b872dd146101f75780632a55205a14610213575b600080fd5b610177600480360381019061017291906124d7565b61045c565b604051610184919061251f565b60405180910390f35b6101956104c5565b6040516101a291906125d3565b60405180910390f35b6101c560048036038101906101c0919061262b565b610557565b6040516101d29190612699565b60405180910390f35b6101f560048036038101906101f091906126e0565b6105dc565b005b610211600480360381019061020c9190612720565b6106f4565b005b61022d60048036038101906102289190612773565b610754565b60405161023b9291906127c2565b60405180910390f35b61024c610810565b005b61026860048036038101906102639190612720565b610896565b005b610284600480360381019061027f919061262b565b6108b6565b005b6102a0600480360381019061029b919061280f565b610912565b005b6102bc60048036038101906102b79190612b2d565b61099c565b005b6102c6610b08565b6040516102d3919061251f565b60405180910390f35b6102f660048036038101906102f1919061262b565b610b1f565b6040516103039190612699565b60405180910390f35b61032660048036038101906103219190612bcc565b610bd1565b6040516103339190612bf9565b60405180910390f35b610344610c89565b005b61034e610d11565b005b610358610d97565b6040516103659190612699565b60405180910390f35b610376610dc1565b60405161038391906125d3565b60405180910390f35b6103a660048036038101906103a191906126e0565b610e53565b005b6103c260048036038101906103bd9190612c40565b610edd565b005b6103de60048036038101906103d99190612d21565b610ef3565b005b6103fa60048036038101906103f5919061262b565b610f55565b60405161040791906125d3565b60405180910390f35b61042a60048036038101906104259190612da4565b610ffc565b604051610437919061251f565b60405180910390f35b61045a60048036038101906104559190612bcc565b611090565b005b6000632a55205a60e01b7bffffffffffffffffffffffffffffffffffffffffffffffffffffffff1916827bffffffffffffffffffffffffffffffffffffffffffffffffffffffff191614156104b457600190506104c0565b6104bd82611188565b90505b919050565b6060600080546104d490612e13565b80601f016020809104026020016040519081016040528092919081815260200182805461050090612e13565b801561054d5780601f106105225761010080835404028352916020019161054d565b820191906000526020600020905b81548152906001019060200180831161053057829003601f168201915b5050505050905090565b60006105628261126a565b6105a1576040517f08c379a000000000000000000000000000000000000000000000000000000000815260040161059890612eb7565b60405180910390fd5b6004600083815260200190815260200160002060009054906101000a900473ffffffffffffffffffffffffffffffffffffffff169050919050565b60006105e782610b1f565b90508073ffffffffffffffffffffffffffffffffffffffff168373ffffffffffffffffffffffffffffffffffffffff161415610658576040517f08c379a000000000000000000000000000000000000000000000000000000000815260040161064f90612f49565b60405180910390fd5b8073ffffffffffffffffffffffffffffffffffffffff166106776112d6565b73ffffffffffffffffffffffffffffffffffffffff1614806106a657506106a5816106a06112d6565b610ffc565b5b6106e5576040517f08c379a00000000000000000000000000000000000000000000000000000000081526004016106dc90612fdb565b60405180910390fd5b6106ef83836112de565b505050565b6107056106ff6112d6565b82611397565b610744576040517f08c379a000000000000000000000000000000000000000000000000000000000815260040161073b9061306d565b60405180910390fd5b61074f838383611475565b505050565b6000806107608461126a565b61079f576040517f08c379a0000000000000000000000000000000000000000000000000000000008152600401610796906130d9565b60405180910390fd5b6127106007600086815260200190815260200160002060010154846107c49190613128565b6107ce91906131b1565b90506007600085815260200190815260200160002060000160009054906101000a900473ffffffffffffffffffffffffffffffffffffffff1691509250929050565b6108186112d6565b73ffffffffffffffffffffffffffffffffffffffff16610836610d97565b73ffffffffffffffffffffffffffffffffffffffff161461088c576040517f08c379a00000000000000000000000000000000000000000000000000000000081526004016108839061322e565b60405180910390fd5b6108946116dc565b565b6108b183838360405180602001604052806000815250610ef3565b505050565b6108c76108c16112d6565b82611397565b610906576040517f08c379a00000000000000000000000000000000000000000000000000000000081526004016108fd906132c0565b60405180910390fd5b61090f8161177e565b50565b61091a6112d6565b73ffffffffffffffffffffffffffffffffffffffff16610938610d97565b73ffffffffffffffffffffffffffffffffffffffff161461098e576040517f08c379a00000000000000000000000000000000000000000000000000000000081526004016109859061322e565b60405180910390fd5b610998828261189b565b5050565b6109a46112d6565b73ffffffffffffffffffffffffffffffffffffffff166109c2610d97565b73ffffffffffffffffffffffffffffffffffffffff1614610a18576040517f08c379a0000000000000000000000000000000000000000000000000000000008152600401610a0f9061322e565b60405180910390fd5b8151835114610a5c576040517f08c379a0000000000000000000000000000000000000000000000000000000008152600401610a5390613306565b60405180910390fd5b60005b8351811015610b0157610a8c85858381518110610a7f57610a7e613326565b5b60200260200101516119b7565b610aca848281518110610aa257610aa1613326565b5b6020026020010151848381518110610abd57610abc613326565b5b6020026020010151611b91565b610aee848281518110610ae057610adf613326565b5b60200260200101518361189b565b8080610af990613355565b915050610a5f565b5050505050565b6000600660009054906101000a900460ff16905090565b6000806002600084815260200190815260200160002060009054906101000a900473ffffffffffffffffffffffffffffffffffffffff169050600073ffffffffffffffffffffffffffffffffffffffff168173ffffffffffffffffffffffffffffffffffffffff161415610bc8576040517f08c379a0000000000000000000000000000000000000000000000000000000008152600401610bbf90613410565b60405180910390fd5b80915050919050565b60008073ffffffffffffffffffffffffffffffffffffffff168273ffffffffffffffffffffffffffffffffffffffff161415610c42576040517f08c379a0000000000000000000000000000000000000000000000000000000008152600401610c39906134a2565b60405180910390fd5b600360008373ffffffffffffffffffffffffffffffffffffffff1673ffffffffffffffffffffffffffffffffffffffff168152602001908152602001600020549050919050565b610c916112d6565b73ffffffffffffffffffffffffffffffffffffffff16610caf610d97565b73ffffffffffffffffffffffffffffffffffffffff1614610d05576040517f08c379a0000000000000000000000000000000000000000000000000000000008152600401610cfc9061322e565b60405180910390fd5b610d0f6000611c16565b565b610d196112d6565b73ffffffffffffffffffffffffffffffffffffffff16610d37610d97565b73ffffffffffffffffffffffffffffffffffffffff1614610d8d576040517f08c379a0000000000000000000000000000000000000000000000000000000008152600401610d849061322e565b60405180910390fd5b610d95611cdc565b565b6000600660019054906101000a900473ffffffffffffffffffffffffffffffffffffffff16905090565b606060018054610dd090612e13565b80601f0160208091040260200160405190810160405280929190818152602001828054610dfc90612e13565b8015610e495780601f10610e1e57610100808354040283529160200191610e49565b820191906000526020600020905b815481529060010190602001808311610e2c57829003601f168201915b5050505050905090565b610e5b6112d6565b73ffffffffffffffffffffffffffffffffffffffff16610e79610d97565b73ffffffffffffffffffffffffffffffffffffffff1614610ecf576040517f08c379a0000000000000000000000000000000000000000000000000000000008152600401610ec69061322e565b60405180910390fd5b610ed98282611d7f565b5050565b610eef610ee86112d6565b8383611d9d565b5050565b610f04610efe6112d6565b83611397565b610f43576040517f08c379a0000000000000000000000000000000000000000000000000000000008152600401610f3a9061306d565b60405180910390fd5b610f4f84848484611f0a565b50505050565b6060610f608261126a565b610f9f576040517f08c379a0000000000000000000000000000000000000000000000000000000008152600401610f9690613534565b60405180910390fd5b6000610fa9611f66565b90506000815111610fc95760405180602001604052806000815250610ff4565b80610fd384611f86565b604051602001610fe4929190613590565b6040516020818303038152906040525b915050919050565b6000600560008473ffffffffffffffffffffffffffffffffffffffff1673ffffffffffffffffffffffffffffffffffffffff16815260200190815260200160002060008373ffffffffffffffffffffffffffffffffffffffff1673ffffffffffffffffffffffffffffffffffffffff16815260200190815260200160002060009054906101000a900460ff16905092915050565b6110986112d6565b73ffffffffffffffffffffffffffffffffffffffff166110b6610d97565b73ffffffffffffffffffffffffffffffffffffffff161461110c576040517f08c379a00000000000000000000000000000000000000000000000000000000081526004016111039061322e565b60405180910390fd5b600073ffffffffffffffffffffffffffffffffffffffff168173ffffffffffffffffffffffffffffffffffffffff16141561117c576040517f08c379a000000000000000000000000000000000000000000000000000000000815260040161117390613626565b60405180910390fd5b61118581611c16565b50565b60007f80ac58cd000000000000000000000000000000000000000000000000000000007bffffffffffffffffffffffffffffffffffffffffffffffffffffffff1916827bffffffffffffffffffffffffffffffffffffffffffffffffffffffff1916148061125357507f5b5e139f000000000000000000000000000000000000000000000000000000007bffffffffffffffffffffffffffffffffffffffffffffffffffffffff1916827bffffffffffffffffffffffffffffffffffffffffffffffffffffffff1916145b806112635750611262826120e7565b5b9050919050565b60008073ffffffffffffffffffffffffffffffffffffffff166002600084815260200190815260200160002060009054906101000a900473ffffffffffffffffffffffffffffffffffffffff1673ffffffffffffffffffffffffffffffffffffffff1614159050919050565b600033905090565b816004600083815260200190815260200160002060006101000a81548173ffffffffffffffffffffffffffffffffffffffff021916908373ffffffffffffffffffffffffffffffffffffffff160217905550808273ffffffffffffffffffffffffffffffffffffffff1661135183610b1f565b73ffffffffffffffffffffffffffffffffffffffff167f8c5be1e5ebec7d5bd14f71427d1e84f3dd0314c0f7b2291e5b200ac8c7c3b92560405160405180910390a45050565b60006113a28261126a565b6113e1576040517f08c379a00000000000000000000000000000000000000000000000000000000081526004016113d8906136b8565b60405180910390fd5b60006113ec83610b1f565b90508073ffffffffffffffffffffffffffffffffffffffff168473ffffffffffffffffffffffffffffffffffffffff16148061142e575061142d8185610ffc565b5b8061146c57508373ffffffffffffffffffffffffffffffffffffffff1661145484610557565b73ffffffffffffffffffffffffffffffffffffffff16145b91505092915050565b8273ffffffffffffffffffffffffffffffffffffffff1661149582610b1f565b73ffffffffffffffffffffffffffffffffffffffff16146114eb576040517f08c379a00000000000000000000000000000000000000000000000000000000081526004016114e29061374a565b60405180910390fd5b600073ffffffffffffffffffffffffffffffffffffffff168273ffffffffffffffffffffffffffffffffffffffff16141561155b576040517f08c379a0000000000000000000000000000000000000000000000000000000008152600401611552906137dc565b60405180910390fd5b611566838383612151565b6115716000826112de565b6001600360008573ffffffffffffffffffffffffffffffffffffffff1673ffffffffffffffffffffffffffffffffffffffff16815260200190815260200160002060008282546115c191906137fc565b925050819055506001600360008473ffffffffffffffffffffffffffffffffffffffff1673ffffffffffffffffffffffffffffffffffffffff16815260200190815260200160002060008282546116189190613830565b92505081905550816002600083815260200190815260200160002060006101000a81548173ffffffffffffffffffffffffffffffffffffffff021916908373ffffffffffffffffffffffffffffffffffffffff160217905550808273ffffffffffffffffffffffffffffffffffffffff168473ffffffffffffffffffffffffffffffffffffffff167fddf252ad1be2c89b69c2b068fc378daa952ba7f163c4a11628f55a4df523b3ef60405160405180910390a46116d78383836121a9565b505050565b6116e4610b08565b611723576040517f08c379a000000000000000000000000000000000000000000000000000000000815260040161171a906138d2565b60405180910390fd5b6000600660006101000a81548160ff0219169083151502179055507f5db9ee0a495bf2e6ff9c91a7834c1ba4fdd244a5e8aa4e537bd38aeae4b073aa6117676112d6565b6040516117749190612699565b60405180910390a1565b600061178982610b1f565b905061179781600084612151565b6117a26000836112de565b6001600360008373ffffffffffffffffffffffffffffffffffffffff1673ffffffffffffffffffffffffffffffffffffffff16815260200190815260200160002060008282546117f291906137fc565b925050819055506002600083815260200190815260200160002060006101000a81549073ffffffffffffffffffffffffffffffffffffffff021916905581600073ffffffffffffffffffffffffffffffffffffffff168273ffffffffffffffffffffffffffffffffffffffff167fddf252ad1be2c89b69c2b068fc378daa952ba7f163c4a11628f55a4df523b3ef60405160405180910390a4611897816000846121a9565b5050565b611388816020013511156118e4576040517f08c379a00000000000000000000000000000000000000000000000000000000081526004016118db90613964565b60405180910390fd5b600073ffffffffffffffffffffffffffffffffffffffff1681600001602081019061190f9190612bcc565b73ffffffffffffffffffffffffffffffffffffffff16146119b3578060076000848152602001908152602001600020818161194a9190613b47565b9050508060000160208101906119609190612bcc565b73ffffffffffffffffffffffffffffffffffffffff16827f1518a753ce2ba621ee225961119ac7c1dc5ed445928dc2a37e81108a24fccdf183602001356040516119aa9190612bf9565b60405180910390a35b5050565b600073ffffffffffffffffffffffffffffffffffffffff168273ffffffffffffffffffffffffffffffffffffffff161415611a27576040517f08c379a0000000000000000000000000000000000000000000000000000000008152600401611a1e90613ba1565b60405180910390fd5b611a308161126a565b15611a70576040517f08c379a0000000000000000000000000000000000000000000000000000000008152600401611a6790613c0d565b60405180910390fd5b611a7c60008383612151565b6001600360008473ffffffffffffffffffffffffffffffffffffffff1673ffffffffffffffffffffffffffffffffffffffff1681526020019081526020016000206000828254611acc9190613830565b92505081905550816002600083815260200190815260200160002060006101000a81548173ffffffffffffffffffffffffffffffffffffffff021916908373ffffffffffffffffffffffffffffffffffffffff160217905550808273ffffffffffffffffffffffffffffffffffffffff16600073ffffffffffffffffffffffffffffffffffffffff167fddf252ad1be2c89b69c2b068fc378daa952ba7f163c4a11628f55a4df523b3ef60405160405180910390a4611b8d600083836121a9565b5050565b611b9a8261126a565b611bd9576040517f08c379a0000000000000000000000000000000000000000000000000000000008152600401611bd090613c9f565b60405180910390fd5b6000819050600081511115611c115781600860008581526020019081526020016000209080519060200190611c0f9291906123c8565b505b505050565b6000600660019054906101000a900473ffffffffffffffffffffffffffffffffffffffff16905081600660016101000a81548173ffffffffffffffffffffffffffffffffffffffff021916908373ffffffffffffffffffffffffffffffffffffffff1602179055508173ffffffffffffffffffffffffffffffffffffffff168173ffffffffffffffffffffffffffffffffffffffff167f8be0079c531659141344cd1fd0a4f28419497f9722a3daafe3b4186f6b6457e060405160405180910390a35050565b611ce4610b08565b15611d24576040517f08c379a0000000000000000000000000000000000000000000000000000000008152600401611d1b90613d0b565b60405180910390fd5b6001600660006101000a81548160ff0219169083151502179055507f62e78cea01bee320cd4e420270b5ea74000d11b0c9f74754ebdbfc544b05a258611d686112d6565b604051611d759190612699565b60405180910390a1565b611d998282604051806020016040528060008152506121ae565b5050565b8173ffffffffffffffffffffffffffffffffffffffff168373ffffffffffffffffffffffffffffffffffffffff161415611e0c576040517f08c379a0000000000000000000000000000000000000000000000000000000008152600401611e0390613d77565b60405180910390fd5b80600560008573ffffffffffffffffffffffffffffffffffffffff1673ffffffffffffffffffffffffffffffffffffffff16815260200190815260200160002060008473ffffffffffffffffffffffffffffffffffffffff1673ffffffffffffffffffffffffffffffffffffffff16815260200190815260200160002060006101000a81548160ff0219169083151502179055508173ffffffffffffffffffffffffffffffffffffffff168373ffffffffffffffffffffffffffffffffffffffff167f17307eab39ab6107e8899845ad3d59bd9653f200f220920489ca2b5937696c3183604051611efd919061251f565b60405180910390a3505050565b611f15848484611475565b611f2184848484612209565b611f60576040517f08c379a0000000000000000000000000000000000000000000000000000000008152600401611f5790613e09565b60405180910390fd5b50505050565b6060604051806060016040528060248152602001613f3e60249139905090565b60606000821415611fce576040518060400160405280600181526020017f300000000000000000000000000000000000000000000000000000000000000081525090506120e2565b600082905060005b60008214612000578080611fe990613355565b915050600a82611ff991906131b1565b9150611fd6565b60008167ffffffffffffffff81111561201c5761201b612854565b5b6040519080825280601f01601f19166020018201604052801561204e5781602001600182028036833780820191505090505b5090505b600085146120db5760018261206791906137fc565b9150600a856120769190613e29565b60306120829190613830565b60f81b81838151811061209857612097613326565b5b60200101907effffffffffffffffffffffffffffffffffffffffffffffffffffffffffffff1916908160001a905350600a856120d491906131b1565b9450612052565b8093505050505b919050565b60007f01ffc9a7000000000000000000000000000000000000000000000000000000007bffffffffffffffffffffffffffffffffffffffffffffffffffffffff1916827bffffffffffffffffffffffffffffffffffffffffffffffffffffffff1916149050919050565b612159610b08565b15612199576040517f08c379a000000000000000000000000000000000000000000000000000000000815260040161219090613d0b565b60405180910390fd5b6121a48383836123a0565b505050565b505050565b6121b883836119b7565b6121c56000848484612209565b612204576040517f08c379a00000000000000000000000000000000000000000000000000000000081526004016121fb90613e09565b60405180910390fd5b505050565b600061222a8473ffffffffffffffffffffffffffffffffffffffff166123a5565b15612393578373ffffffffffffffffffffffffffffffffffffffff1663150b7a026122536112d6565b8786866040518563ffffffff1660e01b81526004016122759493929190613eaf565b602060405180830381600087803b15801561228f57600080fd5b505af19250505080156122c057506040513d601f19601f820116820180604052508101906122bd9190613f10565b60015b612343573d80600081146122f0576040519150601f19603f3d011682016040523d82523d6000602084013e6122f5565b606091505b5060008151141561233b576040517f08c379a000000000000000000000000000000000000000000000000000000000815260040161233290613e09565b60405180910390fd5b805181602001fd5b63150b7a0260e01b7bffffffffffffffffffffffffffffffffffffffffffffffffffffffff1916817bffffffffffffffffffffffffffffffffffffffffffffffffffffffff191614915050612398565b600190505b949350505050565b505050565b6000808273ffffffffffffffffffffffffffffffffffffffff163b119050919050565b8280546123d490612e13565b90600052602060002090601f0160209004810192826123f6576000855561243d565b82601f1061240f57805160ff191683800117855561243d565b8280016001018555821561243d579182015b8281111561243c578251825591602001919060010190612421565b5b50905061244a919061244e565b5090565b5b8082111561246757600081600090555060010161244f565b5090565b6000604051905090565b600080fd5b600080fd5b60007fffffffff0000000000000000000000000000000000000000000000000000000082169050919050565b6124b48161247f565b81146124bf57600080fd5b50565b6000813590506124d1816124ab565b92915050565b6000602082840312156124ed576124ec612475565b5b60006124fb848285016124c2565b91505092915050565b60008115159050919050565b61251981612504565b82525050565b60006020820190506125346000830184612510565b92915050565b600081519050919050565b600082825260208201905092915050565b60005b83811015612574578082015181840152602081019050612559565b83811115612583576000848401525b50505050565b6000601f19601f8301169050919050565b60006125a58261253a565b6125af8185612545565b93506125bf818560208601612556565b6125c881612589565b840191505092915050565b600060208201905081810360008301526125ed818461259a565b905092915050565b6000819050919050565b612608816125f5565b811461261357600080fd5b50565b600081359050612625816125ff565b92915050565b60006020828403121561264157612640612475565b5b600061264f84828501612616565b91505092915050565b600073ffffffffffffffffffffffffffffffffffffffff82169050919050565b600061268382612658565b9050919050565b61269381612678565b82525050565b60006020820190506126ae600083018461268a565b92915050565b6126bd81612678565b81146126c857600080fd5b50565b6000813590506126da816126b4565b92915050565b600080604083850312156126f7576126f6612475565b5b6000612705858286016126cb565b925050602061271685828601612616565b9150509250929050565b60008060006060848603121561273957612738612475565b5b6000612747868287016126cb565b9350506020612758868287016126cb565b925050604061276986828701612616565b9150509250925092565b6000806040838503121561278a57612789612475565b5b600061279885828601612616565b92505060206127a985828601612616565b9150509250929050565b6127bc816125f5565b82525050565b60006040820190506127d7600083018561268a565b6127e460208301846127b3565b9392505050565b600080fd5b600060408284031215612806576128056127eb565b5b81905092915050565b6000806060838503121561282657612825612475565b5b600061283485828601612616565b9250506020612845858286016127f0565b9150509250929050565b600080fd5b7f4e487b7100000000000000000000000000000000000000000000000000000000600052604160045260246000fd5b61288c82612589565b810181811067ffffffffffffffff821117156128ab576128aa612854565b5b80604052505050565b60006128be61246b565b90506128ca8282612883565b919050565b600067ffffffffffffffff8211156128ea576128e9612854565b5b602082029050602081019050919050565b600080fd5b600061291361290e846128cf565b6128b4565b90508083825260208201905060208402830185811115612936576129356128fb565b5b835b8181101561295f578061294b8882612616565b845260208401935050602081019050612938565b5050509392505050565b600082601f83011261297e5761297d61284f565b5b813561298e848260208601612900565b91505092915050565b600067ffffffffffffffff8211156129b2576129b1612854565b5b602082029050602081019050919050565b600080fd5b600067ffffffffffffffff8211156129e3576129e2612854565b5b6129ec82612589565b9050602081019050919050565b82818337600083830152505050565b6000612a1b612a16846129c8565b6128b4565b905082815260208101848484011115612a3757612a366129c3565b5b612a428482856129f9565b509392505050565b600082601f830112612a5f57612a5e61284f565b5b8135612a6f848260208601612a08565b91505092915050565b6000612a8b612a8684612997565b6128b4565b90508083825260208201905060208402830185811115612aae57612aad6128fb565b5b835b81811015612af557803567ffffffffffffffff811115612ad357612ad261284f565b5b808601612ae08982612a4a565b85526020850194505050602081019050612ab0565b5050509392505050565b600082601f830112612b1457612b1361284f565b5b8135612b24848260208601612a78565b91505092915050565b60008060008060a08587031215612b4757612b46612475565b5b6000612b55878288016126cb565b945050602085013567ffffffffffffffff811115612b7657612b7561247a565b5b612b8287828801612969565b935050604085013567ffffffffffffffff811115612ba357612ba261247a565b5b612baf87828801612aff565b9250506060612bc0878288016127f0565b91505092959194509250565b600060208284031215612be257612be1612475565b5b6000612bf0848285016126cb565b91505092915050565b6000602082019050612c0e60008301846127b3565b92915050565b612c1d81612504565b8114612c2857600080fd5b50565b600081359050612c3a81612c14565b92915050565b60008060408385031215612c5757612c56612475565b5b6000612c65858286016126cb565b9250506020612c7685828601612c2b565b9150509250929050565b600067ffffffffffffffff821115612c9b57612c9a612854565b5b612ca482612589565b9050602081019050919050565b6000612cc4612cbf84612c80565b6128b4565b905082815260208101848484011115612ce057612cdf6129c3565b5b612ceb8482856129f9565b509392505050565b600082601f830112612d0857612d0761284f565b5b8135612d18848260208601612cb1565b91505092915050565b60008060008060808587031215612d3b57612d3a612475565b5b6000612d49878288016126cb565b9450506020612d5a878288016126cb565b9350506040612d6b87828801612616565b925050606085013567ffffffffffffffff811115612d8c57612d8b61247a565b5b612d9887828801612cf3565b91505092959194509250565b60008060408385031215612dbb57612dba612475565b5b6000612dc9858286016126cb565b9250506020612dda858286016126cb565b9150509250929050565b7f4e487b7100000000000000000000000000000000000000000000000000000000600052602260045260246000fd5b60006002820490506001821680612e2b57607f821691505b60208210811415612e3f57612e3e612de4565b5b50919050565b7f4552433732313a20617070726f76656420717565727920666f72206e6f6e657860008201527f697374656e7420746f6b656e0000000000000000000000000000000000000000602082015250565b6000612ea1602c83612545565b9150612eac82612e45565b604082019050919050565b60006020820190508181036000830152612ed081612e94565b9050919050565b7f4552433732313a20617070726f76616c20746f2063757272656e74206f776e6560008201527f7200000000000000000000000000000000000000000000000000000000000000602082015250565b6000612f33602183612545565b9150612f3e82612ed7565b604082019050919050565b60006020820190508181036000830152612f6281612f26565b9050919050565b7f4552433732313a20617070726f76652063616c6c6572206973206e6f74206f7760008201527f6e6572206e6f7220617070726f76656420666f7220616c6c0000000000000000602082015250565b6000612fc5603883612545565b9150612fd082612f69565b604082019050919050565b60006020820190508181036000830152612ff481612fb8565b9050919050565b7f4552433732313a207472616e736665722063616c6c6572206973206e6f74206f60008201527f776e6572206e6f7220617070726f766564000000000000000000000000000000602082015250565b6000613057603183612545565b915061306282612ffb565b604082019050919050565b600060208201905081810360008301526130868161304a565b9050919050565b7f717565727920666f72206e6f6e206e6f6e6578697374656e7420746f6b656e00600082015250565b60006130c3601f83612545565b91506130ce8261308d565b602082019050919050565b600060208201905081810360008301526130f2816130b6565b9050919050565b7f4e487b7100000000000000000000000000000000000000000000000000000000600052601160045260246000fd5b6000613133826125f5565b915061313e836125f5565b9250817fffffffffffffffffffffffffffffffffffffffffffffffffffffffffffffffff0483118215151615613177576131766130f9565b5b828202905092915050565b7f4e487b7100000000000000000000000000000000000000000000000000000000600052601260045260246000fd5b60006131bc826125f5565b91506131c7836125f5565b9250826131d7576131d6613182565b5b828204905092915050565b7f4f776e61626c653a2063616c6c6572206973206e6f7420746865206f776e6572600082015250565b6000613218602083612545565b9150613223826131e2565b602082019050919050565b600060208201905081810360008301526132478161320b565b9050919050565b7f4552433732314275726e61626c653a2063616c6c6572206973206e6f74206f7760008201527f6e6572206e6f7220617070726f76656400000000000000000000000000000000602082015250565b60006132aa603083612545565b91506132b58261324e565b604082019050919050565b600060208201905081810360008301526132d98161329d565b9050919050565b50565b60006132f0600083612545565b91506132fb826132e0565b600082019050919050565b6000602082019050818103600083015261331f816132e3565b9050919050565b7f4e487b7100000000000000000000000000000000000000000000000000000000600052603260045260246000fd5b6000613360826125f5565b91507fffffffffffffffffffffffffffffffffffffffffffffffffffffffffffffffff821415613393576133926130f9565b5b600182019050919050565b7f4552433732313a206f776e657220717565727920666f72206e6f6e657869737460008201527f656e7420746f6b656e0000000000000000000000000000000000000000000000602082015250565b60006133fa602983612545565b91506134058261339e565b604082019050919050565b60006020820190508181036000830152613429816133ed565b9050919050565b7f4552433732313a2062616c616e636520717565727920666f7220746865207a6560008201527f726f206164647265737300000000000000000000000000000000000000000000602082015250565b600061348c602a83612545565b915061349782613430565b604082019050919050565b600060208201905081810360008301526134bb8161347f565b9050919050565b7f4552433732314d657461646174613a2055524920717565727920666f72206e6f60008201527f6e6578697374656e7420746f6b656e0000000000000000000000000000000000602082015250565b600061351e602f83612545565b9150613529826134c2565b604082019050919050565b6000602082019050818103600083015261354d81613511565b9050919050565b600081905092915050565b600061356a8261253a565b6135748185613554565b9350613584818560208601612556565b80840191505092915050565b600061359c828561355f565b91506135a8828461355f565b91508190509392505050565b7f4f776e61626c653a206e6577206f776e657220697320746865207a65726f206160008201527f6464726573730000000000000000000000000000000000000000000000000000602082015250565b6000613610602683612545565b915061361b826135b4565b604082019050919050565b6000602082019050818103600083015261363f81613603565b9050919050565b7f4552433732313a206f70657261746f7220717565727920666f72206e6f6e657860008201527f697374656e7420746f6b656e0000000000000000000000000000000000000000602082015250565b60006136a2602c83612545565b91506136ad82613646565b604082019050919050565b600060208201905081810360008301526136d181613695565b9050919050565b7f4552433732313a207472616e736665722066726f6d20696e636f72726563742060008201527f6f776e6572000000000000000000000000000000000000000000000000000000602082015250565b6000613734602583612545565b915061373f826136d8565b604082019050919050565b6000602082019050818103600083015261376381613727565b9050919050565b7f4552433732313a207472616e7366657220746f20746865207a65726f2061646460008201527f7265737300000000000000000000000000000000000000000000000000000000602082015250565b60006137c6602483612545565b91506137d18261376a565b604082019050919050565b600060208201905081810360008301526137f5816137b9565b9050919050565b6000613807826125f5565b9150613812836125f5565b925082821015613825576138246130f9565b5b828203905092915050565b600061383b826125f5565b9150613846836125f5565b9250827fffffffffffffffffffffffffffffffffffffffffffffffffffffffffffffffff0382111561387b5761387a6130f9565b5b828201905092915050565b7f5061757361626c653a206e6f7420706175736564000000000000000000000000600082015250565b60006138bc601483612545565b91506138c782613886565b602082019050919050565b600060208201905081810360008301526138eb816138af565b9050919050565b7f6578636565647320726f79616c747920636f6c6c656374697665206d6178207660008201527f616c7565206f662046696674792070657263656e740000000000000000000000602082015250565b600061394e603583612545565b9150613959826138f2565b604082019050919050565b6000602082019050818103600083015261397d81613941565b9050919050565b60008135613991816126b4565b80915050919050565b60008160001b9050919050565b600073ffffffffffffffffffffffffffffffffffffffff6139c78461399a565b9350801983169250808416831791505092915050565b6000819050919050565b6000613a026139fd6139f884612658565b6139dd565b612658565b9050919050565b6000613a14826139e7565b9050919050565b6000613a2682613a09565b9050919050565b6000819050919050565b613a4082613a1b565b613a53613a4c82613a2d565b83546139a7565b8255505050565b60008135613a67816125ff565b80915050919050565b60007fffffffffffffffffffffffffffffffffffffffffffffffffffffffffffffffff613a9c8461399a565b9350801983169250808416831791505092915050565b6000613acd613ac8613ac3846125f5565b6139dd565b6125f5565b9050919050565b6000819050919050565b613ae782613ab2565b613afa613af382613ad4565b8354613a70565b8255505050565b600081016000830180613b1381613984565b9050613b1f8184613a37565b505050600181016020830180613b3481613a5a565b9050613b408184613ade565b5050505050565b613b518282613b01565b5050565b7f4552433732313a206d696e7420746f20746865207a65726f2061646472657373600082015250565b6000613b8b602083612545565b9150613b9682613b55565b602082019050919050565b60006020820190508181036000830152613bba81613b7e565b9050919050565b7f4552433732313a20746f6b656e20616c7265616479206d696e74656400000000600082015250565b6000613bf7601c83612545565b9150613c0282613bc1565b602082019050919050565b60006020820190508181036000830152613c2681613bea565b9050919050565b7f4552433732314d657461646174613a2055524920736574206f66206e6f6e657860008201527f697374656e7420746f6b656e0000000000000000000000000000000000000000602082015250565b6000613c89602c83612545565b9150613c9482613c2d565b604082019050919050565b60006020820190508181036000830152613cb881613c7c565b9050919050565b7f5061757361626c653a2070617573656400000000000000000000000000000000600082015250565b6000613cf5601083612545565b9150613d0082613cbf565b602082019050919050565b60006020820190508181036000830152613d2481613ce8565b9050919050565b7f4552433732313a20617070726f766520746f2063616c6c657200000000000000600082015250565b6000613d61601983612545565b9150613d6c82613d2b565b602082019050919050565b60006020820190508181036000830152613d9081613d54565b9050919050565b7f4552433732313a207472616e7366657220746f206e6f6e20455243373231526560008201527f63656976657220696d706c656d656e7465720000000000000000000000000000602082015250565b6000613df3603283612545565b9150613dfe82613d97565b604082019050919050565b60006020820190508181036000830152613e2281613de6565b9050919050565b6000613e34826125f5565b9150613e3f836125f5565b925082613e4f57613e4e613182565b5b828206905092915050565b600081519050919050565b600082825260208201905092915050565b6000613e8182613e5a565b613e8b8185613e65565b9350613e9b818560208601612556565b613ea481612589565b840191505092915050565b6000608082019050613ec4600083018761268a565b613ed1602083018661268a565b613ede60408301856127b3565b8181036060830152613ef08184613e76565b905095945050505050565b600081519050613f0a816124ab565b92915050565b600060208284031215613f2657613f25612475565b5b6000613f3484828501613efb565b9150509291505056fe68747470733a2f2f7777772e676174657761792e70696e6174612e697066732e636f6d2fa26469706673582212201d6390b3fcb553e3c3a055ca8e93fa6b8607190cfd6c213677e6c7a0ddc0769e64736f6c63430008090033",
  "immutableReferences": {},
  "source": "// SPDX-License-Identifier: MIT\npragma solidity ^0.8.4;\n\nimport \"@openzeppelin/contracts/token/ERC721/ERC721.sol\";\nimport \"@openzeppelin/contracts/security/Pausable.sol\";\nimport \"@openzeppelin/contracts/access/Ownable.sol\";\nimport \"@openzeppelin/contracts/token/ERC721/extensions/ERC721Burnable.sol\";\n\ncontract MyToken is ERC721, Pausable, Ownable, ERC721Burnable {\n     struct Royalties{\n        address account;\n        uint percentage;\n    }\n\n    // storing the royalty details of a token\n    mapping(uint256 => Royalties) private _royalties;\n    \n    event RoyaltyAdded(uint256 indexed tokenId, address indexed account, uint256 percentage);\n\n    bytes4 private constant _INTERFACE_ID_ERC2981 = 0x2a55205a;\n\n    mapping(uint256 => string) private _tokenURIs;\n\n\n    constructor() ERC721(\"MyToken\", \"MTK\") {}\n\n    function _baseURI() internal pure override returns (string memory) {\n        return \"https://www.gateway.pinata.ipfs.com/\";\n    }\n\n    function _setTokenURI(uint256 _tokenId, string memory _tokenURI) internal virtual {\n        require(_exists(_tokenId), \"ERC721Metadata: URI set of nonexistent token\");\n        \n        bytes memory tempBytes = bytes(_tokenURI);\n        if(tempBytes.length > 0) _tokenURIs[_tokenId] = _tokenURI;\n    }\n\n\n    function pause() public onlyOwner {\n        _pause();\n    }\n\n    function unpause() public onlyOwner {\n        _unpause();\n    }\n\n    function safeMint(address to, uint256 tokenId) public onlyOwner {\n        _safeMint(to, tokenId);\n    }\n\n    function batchMint(address _to,\n            uint256[] memory _tokenId,\n            string[] memory IPFSHash,\n            Royalties calldata _royalties) public  onlyOwner {\n            require(_tokenId.length == IPFSHash.length,\"\");\n            for (uint i = 0; i < _tokenId.length; i++){\n                _mint(_to, _tokenId[i]);\n                _setTokenURI(_tokenId[i], IPFSHash[i]);\n                _setRoyalties(_tokenId[i], _royalties);\n            }\n    }\n\n    function updateRoylaites(uint256 _tokenId, Royalties calldata _royalties) public onlyOwner{\n        _setRoyalties(_tokenId, _royalties);\n    }\n\n\n    function _setRoyalties(uint256 _tokenId, Royalties calldata royalties) internal virtual {\n        // calculated for 10000 \n        require(royalties.percentage <= 5000, \"exceeds royalty collective max value of Fifty percent\"); // 5000/10000 = 50 % \n        // require(royalties.percentage >= 500, \"subceed royalty collective min value of five percent\");// 500/10000 = 5 %\n        \n        if(royalties.account != address(0)){\n            _royalties[_tokenId] = royalties;\n            emit RoyaltyAdded(_tokenId, royalties.account, royalties.percentage);\n        }\n    }\n    \n    function royaltyInfo(uint256 _tokenId,uint256 _salePrice) external view returns (address receiver,uint256 royaltyAmount){\n        require(_exists(_tokenId), \"query for non nonexistent token\");\n        \n        royaltyAmount = (_salePrice * _royalties[_tokenId].percentage) / 10000;\n        receiver = _royalties[_tokenId].account;\n    }\n\n    function _beforeTokenTransfer(address from, address to, uint256 tokenId)\n        internal\n        whenNotPaused\n        override\n    {\n        super._beforeTokenTransfer(from, to, tokenId);\n    }\n\n\n    function supportsInterface(bytes4 interfaceId) public view override returns (bool)\n    {\n        // add support to EIP-2981: NFT Royalty Standard\n        if(interfaceId == _INTERFACE_ID_ERC2981){\n            return true;\n        }\n        return super.supportsInterface(interfaceId);\n    }\n    uint256[48] private __gap;\n}\n",
  "sourcePath": "/home/user/Training/Batch_Mint/contracts/MyToken.sol",
  "compiler": {
    "name": "solc",
    "version": "0.8.9+commit.e5eed63a.Emscripten.clang"
  },
  "schemaVersion": "3.4.3",
  "updatedAt": "2022-06-29T04:58:40.602Z",
  "networkType": "ethereum",
  "devdoc": {
    "kind": "dev",
    "methods": {
      "approve(address,uint256)": {
        "details": "See {IERC721-approve}."
      },
      "balanceOf(address)": {
        "details": "See {IERC721-balanceOf}."
      },
      "burn(uint256)": {
        "details": "Burns `tokenId`. See {ERC721-_burn}. Requirements: - The caller must own `tokenId` or be an approved operator."
      },
      "getApproved(uint256)": {
        "details": "See {IERC721-getApproved}."
      },
      "isApprovedForAll(address,address)": {
        "details": "See {IERC721-isApprovedForAll}."
      },
      "name()": {
        "details": "See {IERC721Metadata-name}."
      },
      "owner()": {
        "details": "Returns the address of the current owner."
      },
      "ownerOf(uint256)": {
        "details": "See {IERC721-ownerOf}."
      },
      "paused()": {
        "details": "Returns true if the contract is paused, and false otherwise."
      },
      "renounceOwnership()": {
        "details": "Leaves the contract without owner. It will not be possible to call `onlyOwner` functions anymore. Can only be called by the current owner. NOTE: Renouncing ownership will leave the contract without an owner, thereby removing any functionality that is only available to the owner."
      },
      "safeTransferFrom(address,address,uint256)": {
        "details": "See {IERC721-safeTransferFrom}."
      },
      "safeTransferFrom(address,address,uint256,bytes)": {
        "details": "See {IERC721-safeTransferFrom}."
      },
      "setApprovalForAll(address,bool)": {
        "details": "See {IERC721-setApprovalForAll}."
      },
      "supportsInterface(bytes4)": {
        "details": "See {IERC165-supportsInterface}."
      },
      "symbol()": {
        "details": "See {IERC721Metadata-symbol}."
      },
      "tokenURI(uint256)": {
        "details": "See {IERC721Metadata-tokenURI}."
      },
      "transferFrom(address,address,uint256)": {
        "details": "See {IERC721-transferFrom}."
      },
      "transferOwnership(address)": {
        "details": "Transfers ownership of the contract to a new account (`newOwner`). Can only be called by the current owner."
      }
    },
    "version": 1
  },
  "userdoc": {
    "kind": "user",
    "methods": {},
    "version": 1
  }
}